:020000040800F2
:10000000680A002091010008950100089701000886
:10001000990100089B0100089D01000800000000F4
:100020000000000000000000000000009F01000828
:10003000A101000800000000A3010008A5010008BC
:10004000A7010008A7010008A7010008A7010008F0
:10005000A7010008A7010008A7010008A7010008E0
:10006000A7010008A7010008A7010008A7010008D0
:10007000A7010008A7010008A7010008A7010008C0
:10008000A7010008A7010008A7010008A7010008B0
:10009000A7010008A7010008A7010008A7010008A0
:1000A000A7010008A7010008A7010008A701000890
:1000B000A7010008A7010008A7010008A701000880
:1000C000A7010008A7010008A7010008A701000870
:1000D000A70100086F060008A7010008A701000893
:1000E000A7010008A7010008A701000800F002F816
:1000F00000F03FF80AA090E8000C82448344AAF183
:100100000107DA4501D100F034F8AFF2090EBAE880
:100110000F0013F0010F18BFFB1A43F0010318473B
:10012000BC130000DC130000103A24BF78C878C16B
:10013000FAD8520724BF30C830C144BF04680C60ED
:10014000704700000023002400250026103A28BF35
:1001500078C1FBD8520728BF30C148BF0B60704739
:10016000642900F09385002070471FB51FBD10B5AE
:1001700010BD00F0D7FE1146FFF7F7FF00F024F89E
:1001800000F0F5FE03B4FFF7F2FF03BC00F060FAE5
:1001900008480047FEE7FEE7FEE7FEE7FEE7FEE76A
:1001A000FEE7FEE7FEE7FEE703480449044A054B85
:1001B00070470000ED00000868010020680A002078
:1001C000680200206802002008B5092000F0E7F965
:1001D000482000F081F84FF41651482000F082FAD0
:1001E00000F0F2FA00F00EFB00F0F8FC49E02548C0
:1001F000006808B9012000E000202249086000F0F2
:10020000DDFB0446002C22D01F4841781FA000F0DF
:1002100009FD214624A000F005FD0B2C08D100218A
:10022000FF2000F0F2FB4FF4FA7000F08DF80EE0C2
:100230000C2C08D1FF21002000F0E7FB4FF4FA70EE
:1002400000F082F803E00021084600F0DEFB062003
:1002500000F0D7FB0546052000F0D3FB064608203A
:1002600000F0CFFB0746072000F0CBFB804633466B
:100270003A46414613A0009500F0D4FC322000F02D
:1002800063F8B4E788812242F800002020200D0A9C
:1002900020202025642020697320206C6967687401
:1002A00020200D0A0000000020200D0A202020251B
:1002B0006420206973202070726573736564202048
:1002C0000D0A00002025356420253564202535647D
:1002D000202535640D0A00004FF0E021096921F066
:1002E00004014FF0E0221161C21700EB5272C2F319
:1002F000C702234B1A701946097801EB4102C2EB81
:10030000C1114FF6FF7202EAC1011E4A1180704707
:1003100001461B4A12784A434FF0E0235A610022FB
:100320009A6101221A6100BF4FF0E022106900F0CB
:1003300001021AB100F48032002AF5D000224FF0F9
:10034000E0231A619A61704701460E4A12884A43B7
:100350004FF0E0235A6100229A6101221A6100BF26
:100360004FF0E022106900F001021AB100F480326F
:10037000002AF5D000224FF0E0231A619A617047FD
:100380000000002002000020A64A0A400243A64BBB
:100390001A6070470146072323EA01021202A24BAA
:1003A0001B1D18684FF6FF031840A04B184310435D
:1003B0009D4B1B1D186070472DE9F041074688468C
:1003C00014461D462846FFF7E5FFC5F1040007FA6D
:1003D00000F60F20284100EA0800064306F00F0649
:1003E000E21704EBD2625211920002F1E022D2F83D
:1003F00000212146E31704EBD3635B11A4EB431CFC
:10040000012303FA0CF31A432046E31704EBD363EA
:100410005B119B0003F1E023C3F800218448005DD9
:1004200040EA061082490855BDE8F08170B50446DF
:100430000B46CE1701EB9676C6F38700CE1701EB7D
:100440009676B610A1EB8606B606350E794B9B69FB
:1004500043F00103774EB3614FEAB63353F82030CF
:100460000F26AE40B343744E46F82030334653F85F
:10047000203004FA05F61E436F4B43F820606F4BA3
:100480001B6801268E4033436C4E336002F001033B
:1004900043B16A4B0C331B6801268E403343674ED1
:1004A0000C36336002F0020343B1644B08331E681C
:1004B00001238B401E43614B08331E6070BD00B5A5
:1004C00000205C490861C8601420486100208861F0
:1004D000C8610846006840F00100086008464068AE
:1004E0005749084053494860084600685549084044
:1004F000504908600846006820F4802008600846DB
:10050000406820F4FE0048600020886000214FF021
:100510000060FFF739FF00BD30BF704772B670470B
:1005200062B6704700B540480830006840F00400EB
:100530003D49083108603F48C06940F080503D495E
:10054000C8614148406840F480703F4948600846AF
:10055000006840F0040008600846006840F00200AF
:100560000860FFF7D9FF00BD3048001D2E49091D66
:1005700008607047014649062E4A926942F001021E
:100580002C4B9A612C4A083A526822F0E0622A4BBE
:10059000083B5A601A4652680A435A60704730B5A1
:1005A00004460025FFF78BFF2248006840F48030A6
:1005B0002049086000BF1F480068400C0028FAD09E
:1005C0004FF480601B494860A01EC4B208464068D2
:1005D00040EA844048600846406840F48030486003
:1005E0001A48006840F03200184908601148006855
:1005F00040F080700F49086000BF0E480068400E50
:100600000028FAD00B48406840F0020009494860D1
:1006100005E008484068C0F3870505F00305022D92
:10062000F7D130BD80FFFF1F08ED00E00000FA05A4
:1006300000E400E000100240080001400004014016
:100640000000FFF8FFFFF6FE0070004000200240AF
:10065000014600BF704700BF554A128802F04002B1
:10066000002AF9D0C2B2524B1B1D1A807047504964
:10067000098801F0200111B34D49091D0988C8B24C
:100680004C49098801F40041C9B94A49098801F473
:10069000804161B10A2803D00021464A118020E040
:1006A0004449098841F40041424A118019E00D286B
:1006B00006D14049098841F480413E4A118010E04A
:1006C0003C490988C1F30D013B4A50543949098816
:1006D000491C384A118011460988C72901DD0021CB
:1006E000118070472DE9F05F05460E46300100F09D
:1006F00095FD8146314905FB01F000F08FFD8246F2
:10070000494600F0A9FC0746384600F067FD84B270
:10071000204600F083FD8346394600F05FFE8246A6
:100720004FF0834100F08EFD814600F057FD80467A
:100730004FF6FF7000EA041404EB080084B220486E
:10074000806940F004001E4988610846806940F4D1
:10075000804088611B48006820F47F601949086068
:100760000846006840F40B6008601548C06840F413
:1007700080401349C8600846C06820F48040C860C3
:100780000B4808300480001D008842F20C01084329
:1007900007490C3108800846008840F02000088096
:1007A0000223252203210846FFF706FEBDE8F09F3D
:1007B00000380140080000203000002040420F00B7
:1007C00000100240040801400C48806940F02000FD
:1007D0000A4988610A48006820F470600849086086
:1007E0000846006840F44070086005480C30006816
:1007F00040F0040002490C310860704700100240CC
:1008000000140140FD48806940F00800FB49886100
:10081000FB48006820F47020F94908600846006829
:1008200040F400200860F548806940F00800F34972
:100830008861F3480068C0F31300F1490860084676
:100840000068F0490843EE490860704738B504462F
:10085000012000900020EC494870012000902EE01B
:10086000BDF80000204018B10120E849086002E00E
:100870000020E64908600120E449083108600520AD
:10088000FFF746FD0020E249C1F8BC010520FFF753
:100890003FFD0120DE49C1F8BC010846D0F8300117
:1008A00030B1D9484078BDF800100843D6494870A7
:1008B000BDF800004FF6FF7101EA40000090BDF85E
:1008C0000000FF28CCDD1020FFF722FD38BD10B559
:1008D0000020CE49091D0860CE490878FFF7B6FF11
:1008E000CC494878FFF7B2FF0120C949C1F8B801E7
:1008F000C5484078732801D1002010BD0120FCE7D5
:100900001CB500200190012000900020BF49091D66
:100910000860C0490878FFF799FFBE494878FFF79B
:1009200095FF0220019036E00120009027E0012091
:10093000B649083108600520FFF7EAFC0020B449F9
:10094000C1F8BC010520FFF7E3FC0120B049C1F864
:10095000BC010846D0F8300150B1AB489DF80410F6
:10096000405CBDF800100843A7499DF80420885456
:10097000BDF800004FF6FF7101EA40000090BDF89D
:100980000000FF28D3DD1020FFF7C2FC9DF8040013
:10099000401CC0B201909DF804000928C4DB01206E
:1009A0009A49091D08601CBD002004E00021964AF8
:1009B0001154411CC8B20928F8DB704710B5FFF785
:1009C000F3FFFFF79DFF9048C0788F49097940EA0F
:1009D00001209149088000240FE0904810F814008D
:1009E000401E012101FA00F08B490988084010B926
:1009F000601CC0B210BD601CC4B2102CEDDB002026
:100A0000F8E701468048405C704770B505460C46E3
:100A100000207E49091D08601020FFF779FC0120A5
:100A2000FFF714FF4220FFF711FF0020FFF70EFF32
:100A30002846FFF70BFF2046FFF708FF0020FFF7CF
:100A400005FF0020FFF702FF0020FFF7FFFE002058
:100A5000FFF7FCFE01206E49C1F8B8011020FFF736
:100A600057FC70BD10B500206849091D08601020B2
:100A7000FFF74EFC0120FFF7E9FE4220FFF7E6FEFC
:100A80000020FFF7E3FE0020FFF7E0FE0020FFF765
:100A9000DDFE01205E49C1F8B8011020FFF738FCE7
:100AA00010BD10B500205949091D08601020FFF73E
:100AB0002FFC0120FFF7CAFE4320FFF7C7FE0020EE
:100AC000FFF7C4FE0120FFF7C1FE0020FFF7BEFEC6
:100AD0000020FFF7BBFE0020FFF7B8FE0020FFF765
:100AE000B5FE0020FFF7B2FE01204949C1F8B80168
:100AF0001020FFF70DFC10BD10B500204349091D63
:100B000008600120FFF7A2FE4420FFF79FFE0020AF
:100B1000FFF79CFE0120FFF799FEEE20FFF796FEFF
:100B20000020FFF793FE0020FFF790FE0020FFF764
:100B30008DFE0020FFF78AFE01203549C1F8B8017B
:100B40001020FFF7E5FB10BD10B500202F49091D4F
:100B500008601020FFF7DCFB0120FFF777FE4D2037
:100B6000FFF774FE0020FFF771FE0020FFF76EFE16
:100B70000120FFF76BFE01202549C1F8B8011020C4
:100B8000FFF7C6FB10BD10B500202049091D086005
:100B90001020FFF7BDFB0120FFF758FE4320FFF7B1
:100BA00055FE0020FFF752FE0020FFF74FFE5A20AF
:100BB000FFF74CFE5A20FFF749FE5A20FFF746FE8A
:100BC0005A20FFF743FE5A20FFF740FE012010494C
:100BD000C1F8B8011020FFF79BFB10BD10B5FFF75F
:100BE00041FFFFF73FFFFFF73DFFFFF75AFFFFF71A
:100BF00083FFFFF7A9FFFFF7C6FF10BD00100240FB
:100C0000040C014000003033F8000020B481214280
:100C1000008021420C0000200A0000200E0000206D
:100C2000704700000FB4044910B503AA029800F001
:100C30004BF910BC5DF814FB0400002070B50446AD
:100C400085690068C10601D5302600E02026C0076E
:100C500007D070BDD4E9012130469047206A401C7E
:100C600020626D1EF6D570BD70B5044685690078AA
:100C7000C00707D170BDD4E9012120209047206A28
:100C8000401C20626D1EF6D570BD00002DE9F041BC
:100C90000646002410687529314615A510D0AFF31B
:100CA0000080002802DA404212A507E031688A0776
:100CB00001D511A502E0490704D510A5012401E0E2
:100CC000AFF3008000210A2306F1240707E0B0FB00
:100CD000F3F203FB1200303078541046491C002810
:100CE000F5D123462A463046BDE8F04100F093B8DE
:100CF000000000002D0000002B000000200000007C
:100D00002DE9F0474FF0000A89460446C0F820A0BC
:100D10002046E1688847002876D0252806D0D4E907
:100D200001219047206A401C2062F1E7E1682046DB
:100D300000258847C4F81CA006460027C4F818A060
:100D40002A2E09D0304600F01DF938B304EB87088D
:100D5000303EC8F8186019E059F8041B204604EB2F
:100D600087029161E1688847012F064618D1E06942
:100D7000002820DA25F020051DE0D8F8180000EB47
:100D8000800006EB40003038C8F818002046E168C3
:100D90008847064600F0F6F80028EED1012F0AD069
:100DA0002E2E08D12046E16888477F1C0646022F78
:100DB00045F02005C4DBA069002803DA404245F075
:100DC0000105A061E80701D025F01005B6B1A6F134
:100DD0004100192802D8203645F400654A463146BC
:100DE000204625604D46FFF7BBF958B1012806D0D3
:100DF000ED1D25F0070000F1080989E704E005F181
:100E0000040985E730468AE7206ABDE8F087704725
:100E10007047704770472DE9F0470D469946924656
:100E2000044600F124080168880604D5E06921F031
:100E30001001216000E00120A84201DD471B00E015
:100E40000027A1697A1902EB0900081AA06120782D
:100E5000C00602D42046FFF7F1FE002608E0D4E9E0
:100E600001211AF806009047206A401C761C206277
:100E70004E45F4DB2078C0060AD52046FFF7DEFE9B
:100E800006E0D4E9012130209047206A401C20620E
:100E9000381EA7F10107F4DC07E0D4E9012118F8B6
:100EA00005009047206A401C2062281EA5F101051C
:100EB000F3DC2046FFF7D8FE2078000602D502209A
:100EC000BDE8F0870120FBE7074B70B50D467B447A
:100ED00000F011F80446284600F020F810B14FF059
:100EE000FF3070BD204670BD85F7FFFF01694A1CC9
:100EF00002610878704700B58FB0CDE9013100215B
:100F0000059105497944CDE9031011466846FFF77C
:100F1000F7FE0FB000BD0000E5FFFFFF007B00F013
:100F200080007047754600F029F8AE460500694616
:100F3000534620F00700854618B020B5FFF734F976
:100F4000BDE820404FF000064FF000074FF00008CA
:100F50004FF0000B21F00701AC46ACE8C009ACE84B
:100F6000C009ACE8C009ACE8C0098D46704704462A
:100F7000AFF300802046FFF705F9000000487047F6
:100F80000401002030380A2801D2012070470020D7
:100F90007047000090EA010F48BF81F0004100F166
:100FA0002E82421A3CBF801A89184FEAD0524FF065
:100FB0007F4C1CEA410FA2EBD15318BF9CEA026F91
:100FC00000F03B804FF0004C4CEA00204CEA01213D
:100FD00021FA03FC10EB0C0C1ED202F1FF325FEA87
:100FE0001C2040EBC25038BF70471CF07F0F4FEA07
:100FF000400C18BFBCF17F4F38BF7047C3F12003CE
:10100000994008BF20F00100BCF17F4F38BF704706
:10101000A0F1C04000F0DDB94FEA3C00000A40EB0F
:10102000C25028BF1CF0FF0F4FEA400CE6D018BF9B
:10103000BCF17F4F38BF7047EAE79CEA026F05D0EA
:1010400010EA5C0F08BF00F00040704710B500F0D8
:101050007AF900BF64FBBE3E4FF47F0C1CEAD0124D
:101060001EBF1CEAD11392EA0C0F93EA0C0F00F09A
:10107000858090EA010F48BF42F4807240F4000C72
:1010800041F400002CF07F4120F07F4000B5814208
:10109000A2EB03020FF2081CACEB504EC0F10000B3
:1010A0009EF800E04FEA4E0E00FB0EFC38BF4900F0
:1010B0004FEA2C1C02F5FA020CFB0EF34FEACE1E8F
:1010C0004FEA112C4FEAC1210EEB635E42EB224244
:1010D0000EFB0CFC4FEA1C5300FB03114FEA112CD2
:1010E0004FEA01310EFB0CFC4FEADC4C00FB0C110B
:1010F000C14228BF09184CEB03335DF804EB10EB39
:10110000410143EBC250B2F57C0F38BF704729D57F
:1011100012F0F00F1CBF00F1C04000F0004070471B
:10112000008182838485868788898B8C8D8E8F91C0
:101130009293959697999A9C9D9FA0A2A3A5A7A8E4
:10114000AAACAEB0B2B3B5B7B9BCBEC0C2C5C7C910
:10115000CCCED1D4D7D9DCDFE2E6E9ECF0F3F7FA74
:10116000FE0000004FEA400C0CF1807CBCF17E4F89
:1011700028BF7047B0F1C04000F02BB990EA010FD2
:101180000CEAD11348BF42F48072624538BF634510
:1011900007D213F47F0F16D080EA010000F0004060
:1011A000704710B500F0CFF8097EFC3E00F005B89E
:1011B00080EA010000F00040704780EA010000F082
:1011C000004000F006B912F47F0F04BF02487047D8
:1011D00080EA010000F0FDB80000C07FC10DD1F130
:1011E0009E0206DB4FEA002343F0004323FA02F09D
:1011F0007047004207D54FEA4001B1F1FE4F02D2DD
:101200004FF00000704710B500F09DF8499224801F
:10121000002070476FEA200070470000B0FA80F3AA
:1012200010FA03F2C3F19D030AD0D90501EB122095
:10123000530638BF704700F1010008BF20F00100DD
:10124000704700004FF47F0C1CEAD0121EBF1CEA4E
:10125000D11392EA0C0F93EA0C0F00F0478090EA4A
:10126000010F48BF42F480724FF0004C4CEA00205E
:101270004CEA012102EB0302A0FB0113A2F50002DC
:10128000002918BF43F001035B0028BF4FEA330376
:1012900042EB22425FEA132C4CEBC2502EBFBCEB58
:1012A000436FB2F57C0F70474FEA036CBCF1004FFF
:1012B00008BF20F00100B2F57C0F38BF70470BD596
:1012C00082F0FF0212F5803FC8BF704700F1C040B6
:1012D000D8BF00F00040704700F5000C5FEA4C0CEE
:1012E00048BF7047B0F1C04000F073B890EA010FFA
:1012F0000CEAD11348BF42F48072624538BF63459F
:1013000004D280EA010000F00040704710B500F000
:101310001AF800BF8900013E00F007B800F009B8D4
:101320005FEA410C5FEA1C6C08D080EA010000F023
:1013300050B85FEA400C5FEA1C6CF6D14FF00040F9
:10134000A0F5800070470EF1020E2EF0030E5EF83D
:10135000044B244204D44FEA4102B2F17F4F11D82A
:101360004FEA4003B3F17F4F0CD80ED14FEAD07C47
:10137000B2F17F4F0CEB4C0C0CF1020C08BF4CEBA4
:10138000D17C04E04FF0080C01E04FEAD17C0CEB7B
:101390004C0324FA03F404F00704B4F1040C06D25D
:1013A0000EEB840CBDE810404CF0010C6047DFE808
:1013B0000CF0070802024FF00040A0F5800010BDBD
:1013C0000846420018BFD2F1807288BF00F000408A
:1013D00010BDFF2141EAD050C005704780F00040A9
:1013E00090EA010F7FF5DDAD81F0004100F007B814
:1013F00090EA010F48BF81F000413FF5D2AD421A9B
:1014000004D882F00042A0EB020011444FEAD0520F
:101410004FF07F4C1CEA410FA2EBD15318BF9CEA5E
:10142000026F4AD04FF0004C4CEA00204CEA0121F8
:1014300021FA03FCB0EB0C0C0FD412F0FE0F36D0E7
:101440005FEA4C001DD5001240EBC25038BF704718
:101450001CF03F0F18BF70470BE0A2F101025FEADA
:101460001C2040EBC25038BF70471CF07F0F18BFE4
:101470007047C3F12003994014BF401E20F00100C3
:10148000704780084FEA122308BF7047B0FA80FC0B
:10149000A2EB0C02CCF1280C60FA0CF093EA122FAC
:1014A00004BF00EBC25070474FEAC3707047130A85
:1014B0005FEADC1008BF7047F6E79CEA026F04D0D1
:1014C00010EA5C0F08BF0020704710B5FFF73BFF24
:1014D00040DFF63E81F0004070470000FC14000839
:1014E0000000002030000000280100082C15000832
:1014F00030000020380A000044010008000000000D
:101500000000000000000000014201000200030092
:101510000400050006000700080009000A000B008F
:0C1520000C000D000E000F001000000079
:04000005080000ED02
:00000001FF
