:020000040800F2
:1000000038080020890100080D040008C903000811
:1000100009040008390200084F2000080000000011
:10002000000000000000000000000000690B000854
:100030004902000800000000110A00087D0C0008B9
:10004000A3010008A3010008A3010008A301000800
:10005000A3010008A3010008A3010008A3010008F0
:10006000A3010008A3010008A3010008A3010008E0
:10007000A3010008A3010008A3010008A3010008D0
:10008000A3010008A3010008A3010008A3010008C0
:10009000A3010008A3010008A3010008A3010008B0
:1000A000A3010008210F0008A3010008A301000814
:1000B000A3010008A3010008A3010008A301000890
:1000C000A3010008A3010008A3010008A301000880
:1000D000A301000885190008A3010008A301000876
:1000E000A3010008A3010008A301000800F002F822
:1000F00000F03AF80AA090E8000C82448344AAF188
:100100000107DA4501D100F02FF8AFF2090EBAE885
:100110000F0013F0010F18BFFB1A43F0010318473B
:10012000A82C0000C82C0000103A24BF78C878C161
:10013000FAD8520724BF30C830C144BF04680C60ED
:10014000704700000023002400250026103A28BF35
:1001500078C1FBD8520728BF30C148BF0B60704739
:100160001FB51FBD10B510BD00F033F81146FFF7E5
:10017000F7FF01F0DFFF00F051F803B4FFF7F2FFE3
:1001800003BC01F066FF00000948804709480047AA
:10019000FEE7FEE7FEE7FEE7FEE7FEE7FEE7FEE737
:1001A000FEE7FEE704480549054A064B7047000094
:1001B000810C0008ED0000083802002038080020FB
:1001C000380400203804002070477047704770479B
:1001D0007047754600F02CF8AE4605006946534658
:1001E00020F00700854618B020B5FFF7DBFFBDE81B
:1001F00020404FF000064FF000074FF000084FF08E
:10020000000B21F00701AC46ACE8C009ACE8C0091E
:10021000ACE8C009ACE8C0098D46704710B504468B
:10022000AFF300802046BDE81040FFF7A6BF0000F6
:1002300000487047D401002000BFFEE710B501F070
:10024000E1FA01F03FFB10BD70472DE9F041024695
:1002500000250026002000230024002791F803C079
:100260000CF00F0591F803C00CF0100CBCF1000F5E
:1002700003D091F802C04CEA050591F800C0BCF12A
:10028000000F31D0146800202BE04FF0010C0CFA65
:1002900000F3B1F800C00CEA03069E4220D18300AF
:1002A0004FF00F0C0CFA03F7BC4305FA03FC4CEAC1
:1002B000040491F803C0BCF1280F06D14FF0010CE3
:1002C0000CFA00FCC2F814C00AE091F803C0BCF1BB
:1002D000480F05D14FF0010C0CFA00FCC2F810C019
:1002E000401C0828D1D31460B1F800C0BCF1FF0F46
:1002F00034DD546800202EE000F1080C4FF00108B6
:1003000008FA0CF3B1F800C00CEA03069E4221D1B2
:1003100083004FF00F0C0CFA03F7BC4305FA03FC03
:100320004CEA040491F803C0BCF1280F05D100F198
:10033000080C08FA0CF8C2F8148091F803C0BCF15C
:10034000480F07D100F1080C4FF0010808FA0CF82B
:10035000C2F81080401C0828CED35460BDE8F0815C
:10036000016170474FF6FF71018002218170042105
:10037000C17070470146888C47F6FF728A847047C7
:1003800000B50248FFF7F6FF00BD00000004004082
:1003900000B50248FFF7EEFF00BD00000008004076
:1003A00010B500F013F800F05DFAFFF747FF00F01A
:1003B00065FE01F051FE00F02AF84FF4E13001F043
:1003C000DBFF00F0ADF910BD00BFFEE708B503206C
:1003D000ADF8000010208DF8030003208DF8020016
:1003E0000121082000F036FB69460648FFF72DFF83
:1003F00002210448FFF7B4FF01210248FFF7B0FFD4
:1004000008BD0000000C014000BFFEE7704710B5BA
:100410004FF4A06000F03AF810BD000070B5002164
:1004200000230F22C47804B3154C246804F4E0645C
:10043000C4F5E064210AC1F10403CA40447804FA17
:1004400003F184781440214309010E4C0678A1552C
:10045000047804F01F050124AC4005786D11AD004F
:1004600005F1E025C5F8004109E0047804F01F0516
:100470000124AC40044D0678761145F8264070BD45
:100480000CED00E000E400E080E100E002490143FF
:10049000024A1160704700000000FA050CED00E010
:1004A0000120224908702249087000202149087063
:1004B0002149087021490870214908802149088094
:1004C0002149086021490880214908802149088084
:1004D0002148224908602248486000208860C8609E
:1004E000086148618861C8610862486288621A4888
:1004F0001C4908601A48486000208860C86008618C
:1005000048618861C8610862486288621648174974
:100510000860002048608860C860086148618861A0
:10052000C8610862486288627047000000000020CD
:10053000010000200200002056000020570000208B
:10054000480000204A0000204C00002050000020FD
:1005500052000020540000200000404050010020C4
:10056000CDCCCC3D7C0100209A99993EA801002079
:100570002DE9F04704460D461646E0692062A06961
:10058000E061701B02F056FAA061D4E9060102F0A6
:10059000E5F80746216A02F0E1F86062D4E9060155
:1005A00002F09CFB0746216802F090FAE060A16926
:1005B000606802F08BFA20614FF08040E16902F040
:1005C00085FA8146A16902F07EFB8046216A02F02D
:1005D000C5F80746A16802F079FA6061D4E9030121
:1005E00002F0BCF88046616902F0B8F80746A16ADB
:1005F00002F0B4F8A0620849A06A02F033FB01D20D
:100600000548A0620549A06A02F02CFA01D203480D
:10061000A062A06ABDE8F0870000FA430000FAC3B8
:1006200001460148405C704744010020002004E07E
:100630000021034A1154411CC8B20928F8DB704755
:100640004401002038B504460120009000201C49D8
:100650004870012000902EE0BDF80000204018B145
:1006600001201849086002E00020164908600120B6
:10067000144908310860322001F036FD002012498B
:10068000C1F8BC01322001F02FFD01200E49C1F854
:10069000BC010846D0F8300130B109484078BDF8B7
:1006A0000010084306494870BDF800004FF6FF717E
:1006B00001EA40000090BDF80000FF28CCDD38BD05
:1006C00044010020B48121420080214210B5FFF78F
:1006D000ADFF00F04FF80F48C0780E49097940EAA5
:1006E00001200D49088000240FE00C4810F8140088
:1006F000401E012101FA00F007490988084010B99D
:10070000601CC0B210BD601CC4B2102CEDDB002018
:10071000F8E7000044010020580000205C000020A1
:100720001148806940F008000F4988610F4800684F
:1007300020F470200D4908600846006840F400204D
:1007400008600948806940F0080007498861074847
:100750000068C0F3130005490860084600680449B2
:10076000084302490860704700100240040C014031
:10077000000030331CB500200190012000900020C3
:100780002449086024490878FFF75CFF224948782B
:10079000FFF758FF0220019033E00120009024E091
:1007A00001201C49091D086000201C49C1F8BC013A
:1007B000322001F099FC01201849C1F8BC0108461B
:1007C000D0F8300150B116489DF80410405CBDF8D7
:1007D0000010084312499DF804208854BDF8000019
:1007E0004FF6FF7101EA40000090BDF80000FF28BD
:1007F000D6DD322001F078FC9DF80400401CC0B228
:1008000001909DF804000928C7DB01200149086018
:100810001CBD0000B88121425A0000200080214206
:100820004401002010B500200A4908600A490878F0
:10083000FFF708FF08494878FFF704FF0120074940
:10084000C1F8B80106484078732801D1002010BDD6
:100850000120FCE7B88121425A000020008021429B
:100860004401002000B589B00121042000F0F2F815
:100870000F20ADF8200018208DF8230003208DF8FC
:10088000220008A92F48FFF7E0FC0121084600F0EC
:10089000C1F840F21F30ADF818000920ADF814007F
:1008A0000020ADF81A00ADF8160005A94FF0804001
:1008B00000F04CFF6020ADF804000120ADF8060008
:1008C0000020ADF80C0001A94FF0804000F0AEFD13
:1008D00001A94FF0804000F0FFFD01A94FF08040DA
:1008E00000F05AFE01A94FF0804000F0AFFE002159
:1008F0004FF0804000F0F5FE00214FF0804000F006
:10090000F2FE00214FF0804000F0EFFE00214FF09A
:10091000804000F0ECFE0821C80600F0D3FD08215D
:10092000C80600F02BFE0821C80600F085FE08214D
:10093000C80600F0C9FE0121880700F0E4FB09B0F9
:1009400000BD0000000801402DE9F04107460C46BB
:10095000002500260021384602F084F913D83846D5
:1009600002F048F885B2B5F5F07F01DD4FF4F0757F
:1009700029464FF0804000F0B4FE00214FF0804047
:1009800000F0B1FE14E087F00048404602F032F873
:1009900085B2B5F5F07F01DD4FF4F07500214FF021
:1009A000804000F09EFE29464FF0804000F09BFE04
:1009B0000021204602F056F913D8204602F01AF81A
:1009C00086B2B6F5F07F01DD4FF4F07600214FF0EE
:1009D000804000F08AFE31464FF0804000F087FEF4
:1009E00014E084F00048404602F004F886B2B6F500
:1009F000F07F01DD4FF4F07631464FF0804000F09B
:100A000074FE00214FF0804000F071FEBDE8F081DF
:100A10007047000029B1064AD2690243044BDA61EB
:100A200004E0034AD2698243014BDA617047000057
:100A30000010024029B1064A12690243044B1A61B0
:100A400004E0034A12698243014B1A6170470000B7
:100A50000010024029B1064A92690243044B9A6190
:100A600004E0034A92698243014B9A617047000097
:100A70000010024029B1064AD2680243044BDA60F2
:100A800004E0034AD2688243014BDA6070470000F9
:100A90000010024030B500210022002400232D4D1B
:100AA0006D6805F00C0121B1042905D0082923D176
:100AB00005E0294D056022E0274D05601FE0254D2A
:100AC0006D6805F47012234D6D6805F480340225BD
:100AD00005EB92421CB9214D554305600BE01D4DBD
:100AE0006D6805F400351DB11C4D5543056002E0ED
:100AF000194D5543056002E0174D056000BF00BF6A
:100B0000144D6D6805F0F0010909154D6B5C056821
:100B1000DD4045600F4D6D6805F4E061090A104D38
:100B20006B5C4568DD4085600A4D6D6805F4605179
:100B3000C90A0B4D6B5C4568DD40C560054D6D68AD
:100B400005F44041890B074D6B5CC568B5FBF3F5B7
:100B5000056130BD0010024000127A0000093D001E
:100B60002800002038000020704710B500F002F87F
:100B700010BD00000CB500200190009033480068C3
:100B800040F480303149086000BF3048006800F40C
:100B9000003000900198401C0190009818B901980D
:100BA000B0F5A06FF1D12948006800F4003010B111
:100BB0000120009001E0002000900098012843D11E
:100BC0002348006840F0100021490860084600688A
:100BD00020F0030008600846006840F0020008604A
:100BE0001A48406819494860084640684860084605
:100BF000406840F4806048600846406820F47C10FB
:100C000048600846406840F4E810486008460068BC
:100C100040F08070086000BF0C48006800F0007071
:100C20000028F9D00948406820F0030007494860CF
:100C30000846406840F00200486000BF0348406832
:100C400000F00C000828F9D10CBD00000010024093
:100C500000200240042808D14FF0E021096941F04A
:100C600004014FF0E022116107E04FF0E021096933
:100C700021F004014FF0E02211617047704700003D
:100C800010B51348006840F001001149086008469B
:100C90004068104908400E494860084600680E49FF
:100CA00008400B4908600846006820F4802008606E
:100CB0000846406820F4FE0048604FF41F0088603A
:100CC000FFF753FF4FF000600449086010BD0000BB
:100CD000001002400000FFF8FFFFF6FE08ED00E004
:100CE000F0B50C46154600220021068C4FF6FE7723
:100CF0003E400684028B018C4FF60C7632407E1CFF
:100D000006EA03162E433243104EB0420ED0104E68
:100D1000B0420BD0B0F1804F08D00E4EB04205D09B
:100D20000D4EB04202D00D4EB04206D14FF6FD76C8
:100D3000314044F00106314305E04FF6F57631408D
:100D400044F00106314302830184F0BD002C0140D0
:100D5000003401400004004000080040000C004046
:100D6000F0B50C461546002200210026078C4FF6F0
:100D7000EF7C07EA0C070784028B018C4FF6FF77A4
:100D800007EA041640F6FF473A404FF6FF7707EAB6
:100D900003373A434FF6FF7707EA05273A43114FE7
:100DA000B8420ED0104FB8420BD0B0F1804F08D0EF
:100DB0000E4FB84205D00E4FB84202D00D4FB84288
:100DC00006D14FF6DF77394046F01007394305E08A
:100DD0004FF65F77394044F01007394302830184AE
:100DE000F0BD0000002C0140003401400004004030
:100DF00000080040000C0040F0B50C4615460022EB
:100E000000210026078C4FF6FF6C07EA0C070784C9
:100E1000828B018C4FF6FF7707EA04264FF60C779A
:100E20003A404FF6FF7707EA03172F433A43114F33
:100E3000B8420ED0104FB8420BD0B0F1804F08D05E
:100E40000E4FB84205D00E4FB84202D00D4FB842F7
:100E500006D14FF6FF57394046F48077394305E015
:100E60004FF2FF57394044F480773943828301843D
:100E7000F0BD0000002C014000340140000400409F
:100E800000080040000C0040F0B50C46154600225A
:100E900000210026078C4EF6FF7C07EA0C0707842A
:100EA000828B018C4FF6FF7707EA043640F6FF4746
:100EB0003A404FF6FF7707EA05273A434FF6FF77A8
:100EC00007EA03373A43114FB8420ED0104FB842E9
:100ED0000BD0B0F1804F08D00E4FB84205D00E4F66
:100EE000B84202D00D4FB84206D14DF6FF773940D7
:100EF00046F48057394305E047F6FF57394044F43C
:100F00008057394382830184F0BD0000002C0140EA
:100F1000003401400004004000080040000C004084
:100F20002DE9F0414648007808B1012000E000209A
:100F30000146444800F009FA00287BD0FFF720FA68
:100F400047F6FF71081A00B23F490880FFF720FA00
:100F5000A0F5FE40FF3800B23C4908803C480078CC
:100F600001284BD13849B1F90010384AB2F90020B4
:100F7000881A01F05FFD07463648B0F9000001F01D
:100F800059FD8046344901F057FC0646394601F0C8
:100F9000E5FB054631480168284601F0DFFB2F4993
:100FA00008600846006801F009FD05B200222946E4
:100FB0002B48FFF7DDFA80F00044204601F0FEFCEC
:100FC00028490988081A05B22A461F48B0F90010B6
:100FD0002548FFF7CDFA25490860204601F0EEFCD0
:100FE00023490988084405B22A461848B0F9001078
:100FF0002048FFF7BDFA2049086015E01948B0F90C
:1010000000201148B0F900101748FFF7B1FA17494E
:1010100008601748B0F900200C48B0F900101548D6
:10102000FFF7A6FA14490860134801680F480068E2
:10103000FFF78AFC0121034800F062F8BDE8F08167
:1010400001000020002C014052000020540000202C
:101050000200002050000020000020414C00002031
:10106000A8010020480000205001002004000020BA
:101070004A0000207C010020080000201FB51F4806
:1010800000F04EF80121C802FFF7E4FC01A800F0CF
:10109000AFFB3120ADF808004FF4E150ADF804008B
:1010A0000020ADF80A00ADF8060001A9134800F0D1
:1010B0004DFB0121114800F023F8012211460F4891
:1010C00000F0ABF94FF4C060FFF7E0F919208DF89C
:1010D000000000208DF8010001208DF802008DF83D
:1010E00003006846FFF79AF900200449243108807C
:1010F0000121024800F007F81FBD0000002C01404C
:10110000CA430282704721B1028842F00102028084
:1011100004E002884FF6FE731A4002807047000018
:1011200010B504466848844208D10121C014FFF775
:10113000A1FC0021E014FFF79DFCC4E0B4F1804F56
:1011400008D101210846FFF775FC00210120FFF7B7
:1011500071FCB8E05D48844208D101210220FFF70C
:1011600069FC00210220FFF765FCACE0584884428E
:1011700008D101210420FFF75DFC00210420FFF7C6
:1011800059FCA0E05348844208D101210820FFF710
:1011900051FC00210820FFF74DFC94E04E488442AA
:1011A00008D101211020FFF745FC00211020FFF796
:1011B00041FC88E04948844208D101212020FFF702
:1011C00039FC00212020FFF735FC7CE044488442B4
:1011D00008D101214014FFF74DFC00216014FFF7F6
:1011E00049FC70E03F48844209D10121C804FFF75F
:1011F00041FC00214FF40020FFF73CFC63E03A483B
:10120000844209D101210805FFF734FC00214FF485
:101210008010FFF72FFC56E03448844209D10121A9
:101220004805FFF727FC00214FF40010FFF722FCD0
:1012300049E02F48844208D101214020FFF7FAFB02
:1012400000214020FFF7F6FB3DE02A48844208D108
:1012500001218020FFF7EEFB00218020FFF7EAFB51
:1012600031E02548844208D101218015FFF7E2FBD7
:101270000021A015FFF7DEFB25E02048844209D1BC
:1012800001210804FFF7F6FB00214FF48030FFF73F
:10129000F1FB18E01A48844209D101214804FFF704
:1012A000E9FB00214FF40030FFF7E4FB0BE01548A9
:1012B000844208D101218804FFF7DCFB00214FF4B0
:1012C0008020FFF7D7FB10BD002C01400004004038
:1012D00000080040000C00400010004000140040D6
:1012E00000340140004C01400050014000540140D6
:1012F00000180040001C0040002000400040014059
:101300000044014000480140F0B50C4615461E4619
:101310000021002200230189028B038C4FF6F8770D
:10132000394021434FF6FC473A4040F201173A4317
:101330004FF6DD773B404FF6FF7707EA06172F435E
:101340003B43018102830384F0BD02460020138ADF
:101350000B400BB1012000E00020704770B505463E
:101360000C46244885420ED0234885420BD0B5F167
:10137000804F08D02148854205D02148854202D0BF
:101380002048854200D100E000BF208850B9238961
:10139000A28861882846FFF7A3FCE188284600F070
:1013A000A9F925E0208804280AD12389A288618828
:1013B0002846FFF7D5FCE188284600F0A4F917E09D
:1013C000208808280AD12389A28861882846FFF747
:1013D00013FDE188284600F0A3F909E02389A288DB
:1013E00061882846FFF750FDE188284600F0A1F902
:1013F00070BD0000002C014000340140000400409A
:1014000000080040000C00400021018041800121C3
:1014100081800021C180018170471AB183890B430B
:10142000838102E083898B438381704770B50024F8
:1014300000220023058C4FF6FE7635400584028C91
:101440008388048B4FF68F752C40B51E2C400D8879
:101450002C43751E2A400D892A434D882A43144D7A
:10146000A8420BD0134DA84208D0134DA84205D076
:10147000124DA84202D0124DA84213D14FF6F77573
:101480002A404D892A434FF6FB752A408D882A430E
:101490004FF6FF652B404FF6FF552B408D892B43B0
:1014A000CD892B4383800483CD888586028470BDDB
:1014B000002C014000340140004001400044014044
:1014C000004801400A460021018B4FF6F77319408E
:1014D000114301837047000070B5002400220023EF
:1014E000058C4FF6EF7635400584028C8388048B9B
:1014F00048F6FF752C404FF6FF452C400D884FF6FF
:10150000FF7606EA05252C434FF6DF752A400D8944
:1015100006EA05152A434D8806EA05152A43154DA6
:10152000A84202D0144DA8421DD14FF67F752A4023
:101530004D894FF6FF7606EA05152A434FF6BF752B
:101540002A408D8806EA05152A434FF6FF352B40C1
:101550004FF2FF752B408D8906EA85052B43CD8917
:1015600006EA85052B4383800483CD8805870284A2
:1015700070BD0000002C0140003401400A460021EB
:10158000018B4FF2FF7319404FF6FF7303EA0223FA
:10159000194301837047000070B500240022002326
:1015A000058C4FF6FF6635400584028C8388848B5A
:1015B0004FF68F752C404FF6FC752C400D882C4350
:1015C0004FF6FF552A400D894FF6FF7606EA0525AE
:1015D0002A434D8806EA05252A43154DA84202D024
:1015E000144DA8421DD14FF2FF752A404D894FF688
:1015F000FF7606EA05252A434FF6FF352A408D88F7
:1016000006EA05252A434EF6FF752B404DF6FF7579
:101610002B408D8906EA05152B43CD8906EA051571
:101620002B4383808483CD888587028470BD00002E
:10163000002C0140003401400A460021818B4FF606
:10164000F7731940114381837047000070B5002281
:1016500000230024058C4EF6FF7635400584038C6C
:101660008488828B48F6FF752A404FF6FF452A4052
:101670000D884FF6FF7606EA05252A434DF6FF75DD
:101680002B400D8906EA05352B434D8806EA0535C2
:101690002B430B4DA84202D00A4DA84208D14BF66D
:1016A000FF752C408D894FF6FF7606EA85152C4391
:1016B00084808283CD88A0F84050038470BD0000F0
:1016C000002C0140003401400A460021818B4FF27A
:1016D000FF7319404FF6FF7303EA02231943818316
:1016E0007047818670470187704781877047A0F8EF
:1016F00040107047028B4FF6F3731A400283028B3F
:101700000A4302837047028B4FF2FF331A40028371
:10171000028B4FF6FF7303EA01231A4302837047DB
:10172000828B4FF6F3731A408283828B0A43828343
:101730007047828B4FF2FF331A408283828B4FF6C1
:10174000FF7303EA01231A43828370470022028851
:101750001D4B98420ED01D4B98420BD0B0F1804FDC
:1017600008D01B4B984205D01A4B984202D01A4B16
:10177000984204D14FF68F731A404B881A43174B87
:10178000984207D0164B984204D04FF6FF431A40B8
:10179000CB881A4302808B8883850B8803850A4B8C
:1017A00098420BD0094B984208D00E4B984205D076
:1017B0000D4B984202D00D4B984201D10B7A038613
:1017C0000123838270470000002C01400034014057
:1017D0000004004000080040000C004000100040E1
:1017E0000014004000400140004401400048014016
:1017F0004FF6FF71818000210180C180418001721C
:101800007047000000B587B02C48FFF789FC012124
:101810000220FFF7FFF801210420FFF71BF906A8BB
:10182000FEF7A0FDC020ADF8180004208DF81B00C5
:1018300003208DF81A0006A92148FEF706FD03A82B
:10184000FFF7D6FF4FF6FF70ADF810000020ADF89F
:101850000C00ADF81200ADF80E0003A91748FFF711
:1018600075FF6846FFF7D0FD0020ADF80800ADF821
:10187000000069461148FFF771FD0420ADF8000033
:1018800069460E48FFF76AFD00231A4603210B48FC
:10189000FFF73AFD01210948FFF732FC012211460A
:1018A0000648FFF7BAFD47F6FF7004492431088067
:1018B00001210248FFF727FC07B000BD00040040EB
:1018C0000008014000B587B02C48FFF729FC012132
:1018D0000420FFF79FF801210820FFF7BBF806A8B6
:1018E000FEF740FDC020ADF8180004208DF81B0065
:1018F00003208DF81A0006A92148FEF7A6FC03A8CC
:10190000FFF776FF4FF6FF70ADF810000020ADF83E
:101910000C00ADF81200ADF80E0003A91748FFF750
:1019200015FF6846FFF770FD0020ADF80800ADF820
:10193000000069461148FFF711FD0420ADF80000D2
:1019400069460E48FFF70AFD00231A4603210B489B
:10195000FFF7DAFC01210948FFF7D2FB012211460B
:101960000648FFF75AFD47F6FF7004492431088006
:1019700001210248FFF7C7FB07B000BD0008004087
:10198000000C014010B540F225511E4800F036FA17
:10199000B8B31C4800F000FBC4B21B48008800F438
:1019A000004060BB1848008800F4804001280CD13A
:1019B0000A2C03D000201449088020E01248008837
:1019C00040F400401049088019E00D2C06D10E4863
:1019D000008840F480400C49088010E00A480088E4
:1019E000C0F30D0009490C5407480088401C064903
:1019F000088008460088C72801DD0020088000F024
:101A000047F810BD00380140440000207C00002051
:101A1000FFB503460C460EA7E1CF8DE8E10000219B
:101A2000002201E0481CC1B21DF80100984201D01B
:101A30001029F7DB01E0501CC2B21DF80200A042E1
:101A400001D0102AF7DB02EB0110C0B204B0F0BDE8
:101A500030313233343536373839414243444546E4
:101A6000002004E00021034A1154411CC8B2C828D8
:101A7000F8DB70477C00002021B1828942F40052DB
:101A8000828104E082894DF6FF731A40828170479B
:101A90002DE9FF41B648007853280CD1B5480078AD
:101AA00000F08000802806D0B248007840F0800026
:101AB000B049087059E1AF48007800F07F00401C41
:101AC000AB49085C582876D1AA48007800F07F001E
:101AD000A8490870084600780A286DD1A4484078C3
:101AE0004B286AD006DC442868D0472867D04928AC
:101AF00060D178E0502863D0542873D05628F7D1AD
:101B000000209D4908709A488078442852D10FF2ED
:101B10006C2C9CE8E0108DE8E010032513E0002019
:101B200001E0461CF0B2924E765D1DF80070BE4298
:101B300001D01028F5DB4FF6FF7606EA01110E18EA
:101B4000B1B26E1CF5B2072DE9DB072513E00020CA
:101B500001E0461CF0B2864E765D1DF80070BE4274
:101B600001D01028F5DB4FF6FF7606EA02121618B0
:101B7000B2B26E1CF5B20B2DE9DBA1F5FE45FF3DBF
:101B80002BB2A2F5FE45FF3D2CB2A02B00DDA02319
:101B900013F1A00F01DA6FF09F03A02C00DDA02449
:101BA00014F1A00F01DA6FF09F04784D2B80784D6F
:101BB0002C8000BFC4E0CAE0C3E038E025E068E064
:101BC0006B488078522804D100F0FEF87149086013
:101BD00007E0674880784C2803D100F0F5F86E499B
:101BE0000860ADE045E062488078522804D100F0FA
:101BF000EBF86849486007E05D4880784C2803D1DD
:101C000000F0E2F8644948609AE059488078522828
:101C100004D100F0D9F85F49886007E05448807823
:101C20004C2803D100F0D0F85B49886088E0504828
:101C30008078302815D1FEF733FC00214FF080402A
:101C4000FFF74FFD00214FF08040FFF74CFD0021D2
:101C50004FF08040FFF749FD00214FF08040FFF733
:101C600046FD43488078312802D101204B49087055
:101C700066E03F488078312803D101204849087048
:101C800006E03B488078302802D1002044490870A3
:101C900056E03748807831284AD10123364E3370D8
:101CA0000023404E33600FF2D40C9CE8C8108DE83E
:101CB000C810032313E0002001E0461CF0B22C4EB4
:101CC000F65C1DF80070BE4201D01028F5DB4FF61F
:101CD000FF7606EA01110E18B1B25E1CF3B2072BB3
:101CE000E9DBA1F5FE43FF3B1CB2294B1C80274BCF
:101CF0001C80072313E0002001E0461CF0B21C4EBC
:101D0000F65C1DF80070BE4201D01028F5DB4FF6DE
:101D1000FF7606EA02121618B2B25E1CF3B20B2B63
:101D2000E9DBA2F5FE43FF3B1DB21F4B1D8006E021
:101D30000F488078302802D100200F49087000BF7A
:101D400000BF00200B490870FFF78AFE0DE009482C
:101D5000007800F08000802805D106480078401CFB
:101D60000449087001E000F005F9BDE8FF810000BA
:101D70007C00002046000020020000203031323379
:101D8000343536373839414243444546480000200F
:101D90004A000020500100207C01002001000020AA
:101DA000000000204C0000205000002002460020CF
:101DB000B1F5007F00D100BF13880B400BB10120AB
:101DC00000E000207047000038B5032410E00A4B03
:101DD000621C995C1A46105DFFF71AFEE51E05EBC2
:101DE000D5714910C1F103010DF80100A01CC4B266
:101DF0000B2CECDB009838BD7C00002070B502464F
:101E0000002400230025002040F66A16B14200D1CC
:101E100000BFC1F3421501F01F03012606FA03F3C8
:101E2000012D02D19689334006E0022D02D1168A97
:101E3000334001E0968A33400C12012606FA04F47E
:101E40001688344013B10CB1012000E0002070BDB1
:101E5000F0B50346002400260025002040F66A174E
:101E6000B94200D100BF1846C1F3421401F01F0669
:101E7000012707FA06F5012C01D10C3004E0022CF1
:101E800001D1103000E014301AB107682F43076009
:101E900002E00768AF430760F0BD00002DE9F0479E
:101EA00086B005460E460024A24600BFA146002784
:101EB000B08900B100BF2F462C8A4CF6FF70044059
:101EC000F08804432C82AC894EF6F3100440B088AD
:101ED00031890843718908430443AC81AC8A4FF6C9
:101EE000FF400440B0890443AC8201A8FEF7D2FD54
:101EF0001F48874202D1DDF810A001E0DDF80CA0F8
:101F0000A88900F4004040B10AEBCA0000EB0A10B7
:101F100031684900B0FBF1F807E00AEBCA0000EBBA
:101F20000A1031688900B0FBF1F86420B8FBF0F0CA
:101F300004012009642101FB1089A88900F40040F4
:101F400040B1322000EBC900B0FBF1F000F0070017
:101F5000044308E0322000EB09106421B0FBF1F0EB
:101F600000F00F0004432C8106B0BDE8F0870000AC
:101F700000380140002005E0064A411C515C115424
:101F8000411CC8B2C628F7DB0020024981F8C7000F
:101F9000704700007C00002001468888C0F30800DC
:101FA000704700007FB504460FA30FCB8DE80F00EC
:101FB000250904F00F0600BF40210F48FFF7F6FE89
:101FC0000028F9D01DF805100B4800F017F800BFE5
:101FD00040210948FFF7EAFE0028F9D01DF8061055
:101FE000054800F00BF87FBD3031323334353637D9
:101FF000383941424344454600380140C1F30802A4
:10200000828070477CB505460095002007E0C0F14E
:1020100003011DF8011001AA1154411CC8B2042883
:10202000F5DB002405E001A9085DFFF7BBFF601C9C
:10203000C4B2042CF7DB7CBD70B50446250AE6B2B9
:102040002846FFF7AFFF3046FFF7ACFF70BD00BF7B
:10205000FEE700BF7047000010B56FF00400FEF708
:10206000F9FD0A4800680A49B0FBF1F00949087017
:102070000846007800EB4001C1EBC0104FF6FF713D
:1020800001EAC0000449088010BD000014000020CF
:1020900000127A003C0000203E0000200146114A58
:1020A00012884A434FF0E0235A6100229A611A468F
:1020B000126942F001021A6100BF4FF0E02210697C
:1020C00000F001021AB100F48032002AF5D04FF07E
:1020D000E022126922F001024FF0E0231A6100228F
:1020E0009A6170473E0000200146114A12784A4327
:1020F0004FF0E0235A6100229A611A46126942F0B9
:1021000001021A6100BF4FF0E022106900F00102E5
:102110001AB100F48032002AF5D04FF0E0221269A3
:1021200022F001024FF0E0231A6100229A61704709
:102130003C0000200EB5FEF733F9FEF7B1F90020A0
:102140007D4908607D49C1F88401F4E0FEF76AFB2F
:1021500000287DD10A20FFF7A1FFFEF7B7FA07207C
:10216000FEF75EFA803802900820FEF759FAC0F1B7
:102170007F040520FEF754FAA0F180090620FEF73F
:102180004FFAC0F17F00019000206D490870B9F14D
:10219000000F02D10CB101200870204600F09DF91B
:1021A00007460022674B00F0AFF9054600F066F9DC
:1021B00000B26549088065490880ECB9484600F0DE
:1021C0008CF90746624A634B00F09EF9054600F021
:1021D00055F900B25C490880C9F1000000F07DF9B2
:1021E00007465B4A5B4B00F08FF9054600F046F965
:1021F00000B25649088046E0484600F01BFC4FF00C
:102200008641009000F018FB834600F07BFA0546FB
:102210004F4A514B00F078F9074600F0FDF882462E
:102220000021504600F01EFC17D24FF07E51504660
:1022300000F094FA06464448B0F9000000F0FAFBBA
:102240000746314600F042FC054600F0B7FB00E0CF
:102250003EE000B23C49088014E051464FF07E5009
:1022600000F03CFD06463948B0F9000000F0E2FB02
:102270000746314600F02AFC054600F09FFB00B2FD
:102280003249088000BF3048B0F90000322802DD32
:1022900032202D4908802C48B0F9000010F1320F8F
:1022A00003DA6FF03100284908802848B0F90000AF
:1022B000322802DD3220254908802448B0F9000088
:1022C00010F1320F03DA6FF031002049088002E08C
:1022D0000A20FFF7E3FE2148007848B32049098827
:1022E00088B2FFF7A9FE1F49098888B2FFF7A4FE4C
:1022F0001D490868FFF786FE1C490868FFF782FE43
:1023000019494868FFF77EFE18494868FFF77AFECA
:1023100015498868FFF776FE14498868FFF772FE52
:1023200013480068FFF76EFE12480068FFF76AFE68
:10233000C820FFF7B3FE09E78081214200802142D7
:10234000020000200000D03F480000204A0000208A
:102350009A9999999999A93F9999D93F0000002094
:102360005200002054000020500100207C01002079
:10237000040000200800002010B586B004460121AA
:1023800044F20400FEF766FB4FF40070ADF8140051
:1023900003208DF8160018208DF8170005A91C4899
:1023A000FDF753FF4FF48060ADF8140004208DF862
:1023B000170005A91648FDF748FF25208DF80000F5
:1023C00003208DF801008DF8020001208DF8030034
:1023D0006846FEF723F801940020ADF80800ADF838
:1023E0000A00ADF80C00ADF810000C20ADF80E009E
:1023F00001A90848FFF752FD012240F22551054886
:10240000FFF726FD01210348FFF736FB06B010BD9C
:10241000000801400038014021F00042A2F1605262
:10242000B2F5801F01F0004328BFD2F17F6C0BD9B9
:102430005FEA001C43EAC20242EB507018BF7047CB
:1024400028BF20F001007047B2F5801FBCBF1846BE
:1024500070474FEA410C1CF5001F02D2084600F0FD
:10246000FCBB70B500F0FAF800000089FFF7F6BF7A
:102470004FF00040A0F58000704700004FEA410394
:102480004FEA5353A3F58063D3F11E03C8BFD3F1C2
:10249000210C0CDD4FF0004242EAC12242EA5052C8
:1024A00032FA03FC8CEAE17CACEBE1707047102B54
:1024B000C4BF0020704703F5787CBCF1FF3F04D017
:1024C0006FF0004282EA2100704770B500F0C6F854
:1024D0004992248000207047F2E710F0004248BF84
:1024E0004042B0FA80F310FA03F10AD0C3F11D03A1
:1024F00003F580634FEA415002EB035202EBD12116
:1025000070474FF000007047DFF848C170B51CEA13
:10251000111E1EBF1CEA13159EEA0C0F95EA0C0F44
:1025200000F06F8081EA030423EA4C134EEAD47E64
:1025300021EA4C1141F4801143F48013AE44A1FB15
:10254000024CA0FB0365AEF17F7E361955EB0C05FE
:10255000A1FB034C4CF10003A0FB021C16EB0C0684
:10256000654153F10003094218BF46F0010613F418
:10257000007F0BD14FEA03314FEA0530340341EAC3
:10258000155140EA16506FF003020AE04FEAC321EA
:102590004FEAC520F40241EA555140EA56506FF027
:1025A000020202EB2E4201EB025585EACE710AD0FF
:1025B0005FEA440C18BF24F0004450F1000041F1E0
:1025C000000120EAD47040F2FE7C624500D270BD6A
:1025D000A84214BF4FF080444FF04044002E08BF83
:1025E0000024BEF1806FA8BFA1F1C041BDE87040DA
:1025F00080F282804FF0000001F1C04101F0004103
:1026000070479EEA0C0F0CEA131518BF95EA0C0FE1
:1026100006D04FF0000081EA030E0EF0004170BDBD
:1026200000F01CF88900013E00F007B800F009B87E
:102630004FEA430C5FEA5C5C08D081EA030100F0DA
:102640005BB84FEA410C5FEA5C5CF6D14FF00000EA
:10265000014970470000FF070000F87F0EF1020EED
:102660002EF0030E5EF8046B364205D4012A43EBCC
:10267000030515F5001F12D8012841EB010C1CF5CC
:10268000001F0CD80ED14FEAD17C15F5001F0CEBC2
:102690004C0C0CF1020C08BF4CEBD37C04E04FF067
:1026A000080C01E04FEAD37C0CEB4C0526FA05F64A
:1026B00006F00706B6F1040C06D20EEB860CBDE858
:1026C00070404CF0010C6047DFE80CF0090B02028F
:1026D0004FF000414FF00000A1F5002170BD1946F8
:1026E0001046012851EB010418BFD4F5001484BF33
:1026F000002001F0004170BD0808A0F500114FEA6C
:102700003101704743004FEAD30C4FEA3C0C434081
:102710001FBF40070CF1605113F0FE4F70471CF0D3
:10272000006F03D100200CF0004170470CF0004313
:1027300043EA507010B540EACC0000F048FA00BF00
:10274000000000924FEA0001FFF7D6BF4FF00041B2
:102750004FF00000A1F500217047000090EA010F42
:1027600048BF81F0004100F1C082421A3CBF801A8C
:1027700089184FEAD0524FF07F4C1CEA410FA2EB70
:10278000D15318BF9CEA026F00F03B804FF0004C21
:102790004CEA00204CEA012121FA03FC10EB0C0C5E
:1027A0001ED202F1FF325FEA1C2040EBC25038BF5C
:1027B00070471CF07F0F4FEA400C18BFBCF17F4FF1
:1027C00038BF7047C3F12003994008BF20F00100D3
:1027D000BCF17F4F38BF7047A0F1C04000F03DBA58
:1027E0004FEA3C00000A40EBC25028BF1CF0FF0F2C
:1027F0004FEA400CE6D018BFBCF17F4F38BF70479E
:10280000EAE79CEA026F05D010EA5C0F08BF00F00F
:102810000040704710B500F0DAF900BF64FBBE3E1F
:10282000401058BFC0F14040491058BFC1F140416D
:102830008142EFF3008070474FF47F0C1CEAD01206
:102840001EBF1CEAD11392EA0C0F93EA0C0F00F0A2
:10285000858090EA010F48BF42F4807240F4000C7A
:1028600041F400002CF07F4120F07F4000B5814210
:10287000A2EB03020FF2081CACEB504EC0F10000BB
:102880009EF800E04FEA4E0E00FB0EFC38BF4900F8
:102890004FEA2C1C02F5FA020CFB0EF34FEACE1E97
:1028A0004FEA112C4FEAC1210EEB635E42EB22424C
:1028B0000EFB0CFC4FEA1C5300FB03114FEA112CDA
:1028C0004FEA01310EFB0CFC4FEADC4C00FB0C1113
:1028D000C14228BF09184CEB03335DF804EB10EB41
:1028E000410143EBC250B2F57C0F38BF704729D588
:1028F00012F0F00F1CBF00F1C04000F00040704724
:10290000008182838485868788898B8C8D8E8F91C8
:102910009293959697999A9C9D9FA0A2A3A5A7A8EC
:10292000AAACAEB0B2B3B5B7B9BCBEC0C2C5C7C918
:10293000CCCED1D4D7D9DCDFE2E6E9ECF0F3F7FA7C
:10294000FE0000004FEA400C0CF1807CBCF17E4F91
:1029500028BF7047B0F1C04000F07FB990EA010F86
:102960000CEAD11348BF42F48072624538BF634518
:1029700007D213F47F0F16D080EA010000F0004068
:10298000704710B500F023F9097EFC3E00F005B851
:1029900080EA010000F00040704780EA010000F08A
:1029A000004000F05AB912F47F0F04BF024870478C
:1029B00080EA010000F051B90000C07F41000B0E19
:1029C000D3F19E0208D950F400034FEA032323FAFF
:1029D00002F048BF4042704710B500F0F8F800BF61
:1029E00049922480002070476FF0004282EA200064
:1029F00070470000C10DD1F19E0206DB4FEA0023B3
:102A000043F0004323FA02F07047004207D54FEA33
:102A10004001B1F1FE4F02D24FF00000704710B5F7
:102A200000F0D5F849922480002070476FEA20001A
:102A30007047000010F0004148BF4042B0FA80F3F8
:102A400010FA03F2C3F19D030BD051EAC35101EB1D
:102A50001220530638BF704700F1010008BF20F074
:102A60000100704750EA010C00F113801CF5000FC3
:102A700058BFBCF5000F01D48842704707D710F546
:102A8000000F58BF11F5000F15D4884270478942D6
:102A900070471CF5000F04D5BCF5000FF7D5814237
:102AA00070474FF0807C1CEB400F38BF1CEB410F90
:102AB00001D28142704710B500F089F89224490094
:102AC0004FF000504FF08051FFF7AABE4FF47F0C3B
:102AD0001CEAD0121EBF1CEAD11392EA0C0F93EA33
:102AE0000C0F00F0478090EA010F48BF42F480725B
:102AF0004FF0004C4CEA00204CEA012102EB0302AB
:102B0000A0FB0113A2F50002002918BF43F0010346
:102B10005B0028BF4FEA330342EB22425FEA132CEB
:102B20004CEBC2502EBFBCEB436FB2F57C0F70472D
:102B30004FEA036CBCF1004F08BF20F00100B2F572
:102B40007C0F38BF70470BD582F0FF0212F5803F33
:102B5000C8BF704700F1C040D8BF00F000407047C8
:102B600000F5000C5FEA4C0C48BF7047B0F1C04064
:102B700000F073B890EA010F0CEAD11348BF42F499
:102B80008072624538BF634504D280EA010000F0DC
:102B90000040704710B500F01AF800BF8900013EF0
:102BA00000F007B800F009B85FEA410C5FEA1C6C5E
:102BB00008D080EA010000F050B85FEA400C5FEAFC
:102BC0001C6CF6D14FF00040A0F5800070470EF16C
:102BD000020E2EF0030E5EF8044B244204D44FEA9A
:102BE0004102B2F17F4F11D84FEA4003B3F17F4F5A
:102BF0000CD80ED14FEAD07CB2F17F4F0CEB4C0CCD
:102C00000CF1020C08BF4CEBD17C04E04FF0080C37
:102C100001E04FEAD17C0CEB4C0324FA03F404F0FE
:102C20000704B4F1040C06D20EEB840CBDE810408E
:102C30004CF0010C6047DFE80CF0070802024FF08F
:102C40000040A0F5800010BD0846420018BFD2F138
:102C5000807288BF00F0004010BDFF2141EAD050D3
:102C6000C005704751EA000C00F113801CF5000FFD
:102C700058BFBCF5000F01D48142704707D711F54A
:102C8000000F58BF10F5000F15D4814270478942DC
:102C900070471CF5000F04D5BCF5000FF7D588422E
:102CA00070474FF0807C1CEB410F38BF1CEB400F8E
:102CB00001D28842704780EA010081EA000180EA7F
:102CC0000100FFF7F8BE80F0004090EA010F7FF5A9
:102CD0004CAD81F0004100F008B8000090EA010F0F
:102CE00048BF81F000413FF540AD421A04D882F060
:102CF0000042A0EB020011444FEAD0524FF07F4C4B
:102D00001CEA410FA2EBD15318BF9CEA026F4AD0D4
:102D10004FF0004C4CEA00204CEA012121FA03FC60
:102D2000B0EB0C0C0FD412F0FE0F36D05FEA4C0063
:102D30001DD5001240EBC25038BF70471CF03F0F4A
:102D400018BF70470BE0A2F101025FEA1C2040EBC4
:102D5000C25038BF70471CF07F0F18BF7047C3F1D7
:102D60002003994014BF401E20F0010070478008E6
:102D70004FEA122308BF7047B0FA80FCA2EB0C02A6
:102D8000CCF1280C60FA0CF093EA122F04BF00EB90
:102D9000C25070474FEAC3707047130A5FEADC10F5
:102DA00008BF7047F6E79CEA026F04D010EA5C0F98
:102DB00008BF0020704710B5FFF709FF40DFF63E5F
:102DC00081F0004070470000E82D0008000000205E
:102DD0007C00000028010008642E00087C00002010
:102DE000BC070000440100080000000000000000D3
:102DF00000000000000000000000000000A24A04E3
:102E0000000000000000000001020304060708099A
:102E10000000000001020304010203040607080980
:102E2000020406080000000000000000000000008E
:102E30000000000000000000000000000000000092
:102E4000000001420100020003000400050006002A
:102E50000700080009000A000B000C000D000E001E
:042E60000F0010004F
:04000005080000ED02
:00000001FF
