:020000040800F2
:100000000803002005010008090100080B01000891
:100010000D0100080F010008110100080000000098
:1000200000000000000000000000000013010008B4
:100030001501000800000000170100081901000860
:100040001B0100081B0100081B0100081B01000820
:100050001B0100081B0100081B0100081B01000810
:100060001B0100081B0100081B0100081B01000800
:100070001B0100081B0100081B0100081B010008F0
:100080001B0100081B0100081B0100081B010008E0
:100090001B0100081B0100081B0100081B010008D0
:1000A0001B0100081B0100081B0100081B010008C0
:1000B0001B0100081B0100081B0100081B010008B0
:1000C0001B0100081B0100081B0100081B010008A0
:1000D0001B010008D10500081B0100081B010008D6
:1000E0001B0100081B0100081B010008DFF80CD0F1
:1000F00000F058FE004800472101000808030020D6
:1001000030BF000005480047FEE7FEE7FEE7FEE7D8
:10011000FEE7FEE7FEE7FEE7FEE7FEE7ED0000088C
:100120002DE9F843092000F0EBF9482000F082F8AF
:100130004FF41651482000F086FA00F0F7FC00F06A
:1001400003FB00F0CFFC49E02548006808B9012016
:1001500000E000202249086000F0B5FB0446002CB6
:1001600022D02048417820A000F02EFE214625A074
:1001700000F02AFE0B2C08D10021FF2000F0C9FB63
:100180004FF4FA7000F06DF80EE00C2C08D1FF214E
:10019000002000F0BEFB4FF4FA7000F062F803E0BC
:1001A0000021084600F0B5FB062000F0AEFB054636
:1001B000052000F0AAFB0646082000F0A6FB074633
:1001C000072000F0A2FB804633463A46014614A0C1
:1001D000009500F0F9FD642000F043F8B4E700005A
:1001E00088812242F800002020200D0A20202025AE
:1001F000642020697320206C6967687420200D0AD0
:100200000000000020200D0A202020256420206905
:100210007320207072657373656420200D0A0000DE
:100220002025356420253564202535642025356456
:100230000D0A00004FF0E021096921F004014FF0A0
:10024000E02211610146C21700EB5272D2101F4B1F
:100250001A70194609784FF47A7251439A1C11802A
:1002600070471A4A921C128842434FF0E0235A61A9
:1002700000229A6101221A6100BF4FF0E022116949
:1002800011F0010F02D011F4803FF6D000224FF0A0
:10029000E0231A619A6170470C4A127842434FF08A
:1002A000E0235A6100229A6101221A6100BF4FF0D7
:1002B000E022116911F0010F02D011F4803FF6D055
:1002C00000224FF0E0231A619A617047000000207D
:1002D000AC4A0A400243AC4B1A607047072323EA3A
:1002E00000021202A84B1B1D19684FF6FF031940AC
:1002F000A64B194311434FF0E023C3F80C1D704780
:100300002DE9F04704460D4616461F463046F117C4
:1003100006EB91714FEAA109F11706EB9171891073
:10032000A6EB810101F0FF0A042101EBCA0000F0F5
:10033000FF0A3846FFF7D2FFC7F1040004FA00F8BD
:100340000F203841284040EA080808F00F08202E06
:1003500009DA8F4800680121B14008434FF0E021DD
:10036000C1F800010BE08A48001D0168A6F12002D7
:100370000120904001434FF0E020C0F8041185486F
:1003800050F8290008FA0AF10143824840F8291080
:10039000BDE8F08770B50D46CE1701EB9676B31029
:1003A000CE1701EB9676B610A1EB8606B606340E94
:1003B000794DAD6945F00105774EB5614FEAB63527
:1003C00055F823600F25A540AE43744D45F82360D2
:1003D00055F8235000FA04F63543704E46F8235082
:1003E0006F4D2E6801258D402E436C4D083DC5F89C
:1003F000006412F0010F09D0694D0C352E680125FB
:100400008D402E43654D083DC5F80C6412F0020F77
:1004100009D0634D08352E6801258D402E435F4D70
:10042000083DC5F8086470BD00B500205A49086150
:10043000C8601420486100208861C86108460068CF
:1004400040F001000860084640685649084052499B
:10045000486008460068544908404F49086008460B
:10046000006820F4802008600846406820F4FE0000
:1004700048600020886000214FF00060FFF728FFEF
:1004800000BD10B540480830006840F004004FF04F
:10049000E021C1F8100D4048C06940F080503E494D
:1004A000C8614248406840F480704049486008464E
:1004B000006840F0040008600846006840F0020050
:1004C0000860FFF71DFE10BD3048001D2E49091DB4
:1004D000086070470146084649062F4A926942F073
:1004E00001022D4B9A612D4A083A526822F0E062CF
:1004F0002A4B083B5A601A4652680A435A607047B2
:1005000030B504460025FFF78FFF2348006840F40C
:1005100080302149086000BF1F480068400CFBD0B4
:100520004FF480601C494860A01EC4B20846406871
:1005300040EA844048600846406840F480304860A3
:100540001B48006840F032001949086012480068F2
:1005500040F080701049086000BF0F480068400EEE
:10056000FBD00D48406840F002000B49486005E0B0
:1005700009484068C0F3870505F00305022DF7D14F
:1005800030BD000080FFFF1F08ED00E00000FA050D
:1005900000E100E000E400E000100240080001403B
:1005A000000401400000FFF8FFFFF6FE007000406D
:1005B00000200240014600BF704700BF5A4A12881F
:1005C00012F0400FFAD0C2B2574B1B1D1A80704771
:1005D0005549098811F0200F34D05349091D098865
:1005E000C8B25249098811F4004F2BD14F490988EC
:1005F00011F4804F0CD00A2803D000214B4A1180FF
:1006000020E04A49098841F40041484A118019E034
:100610000D2806D14549098841F48041434A11809B
:1006200010E042490988C1F30D01414A50543F4945
:100630000988491C3D4A118011460988C72901DDF6
:100640000021118070472DE9F05F04460D46280116
:1006500000F04BFB8146374904FB01F000F045FBFD
:100660008246494600F00BFB0646304600F042FB4E
:1006700087B2384600F039FB8346314600F0C3FAB2
:1006800082464FF0834100F0C7FA814600F032FB0A
:1006900080463F0107EB080087B22748806940F099
:1006A0000400254988610846806940F480408861DB
:1006B0002248006820F47F602149C1F804080846F8
:1006C000D0F8040840F40B60C1F804081A48C06868
:1006D00040F480401849C8600846C06820F4804053
:1006E000C8601848A0F808780F480C30008842F21B
:1006F0000C0108431349A1F80C080846B0F80C088F
:1007000040F48070A1F80C080846B0F80C0840F0DE
:10071000200005490C3108800223252203210846C8
:10072000FFF7EEFDBDE8F09F003801400400002017
:100730003000002040420F00001002400408014039
:100740000000014000300140EE48806940F00800A0
:10075000EC498861EC48006820F47020EB49C1F84E
:10076000040C0846D0F8040C40F40020C1F8040C36
:10077000E448806940F00800E2498861E348D0F825
:10078000040CC0F31300E149C1F8040CDE48006812
:10079000DF490843DD49C1F8040C704770B50546D0
:1007A00001240020DB49487000BF25E02C4203D023
:1007B0000120D949086002E00020D74908600120E3
:1007C000D549083108600520FFF766FD0020D349B0
:1007D000C1F8BC010520FFF75FFD0120CF49C1F83A
:1007E000BC010846D0F8300120B1CA484078204307
:1007F000C84948706004040CFF2CD7DD1020FFF7B7
:100800004BFD70BD10B50020C349091D0860C449E7
:100810000878FFF7C3FFC2494878FFF7BFFF012000
:10082000BE49C1F8B801BB484078732801D1002007
:1008300010BD0120FCE770B5002501240020B64959
:10084000091D0860B6490878FFF7A8FFB449487841
:10085000FFF7A4FF022525E001241CE00120AE499A
:10086000083108600520FFF717FD0020AB49C1F8EB
:10087000BC010520FFF710FD0120A849C1F8BC010B
:100880000846D0F8300120B1A248405D2043A1497C
:1008900048556004040CFF2CE0DD1020FFF7FCFC41
:1008A000681CC5B2092DD7DB01209B49091D0860D2
:1008B00070BD002004E00021964A1154411CC8B2CA
:1008C0000928F8DB704710B5FFF7F3FFFFF7B3FF18
:1008D0009048C0788F49097940EA01209149088001
:1008E00000240EE0904830F81400411E012088409A
:1008F0008C490988084202D1601CC0B210BD601C3E
:10090000C4B2102CEEDB0020F8E701468148405CC1
:10091000704770B504460D4600207F49091D0860E8
:100920001020FFF7B9FC0120FFF738FF4220FFF746
:1009300035FF0020FFF732FF2046FFF72FFF284644
:10094000FFF72CFF0020FFF729FF0020FFF726FF0D
:100950000020FFF723FF0020FFF720FF01206F4951
:10096000C1F8B8011020FFF797FC70BD10B500204A
:100970006949091D08601020FFF78EFC0120FFF770
:100980000DFF4220FFF70AFF0020FFF707FF0020BE
:10099000FFF704FF0020FFF701FF01205F49C1F8C6
:1009A000B8011020FFF778FC10BD10B500205A499F
:1009B000091D08601020FFF76FFC0120FFF7EEFE15
:1009C0004320FFF7EBFE0020FFF7E8FE0120FFF7D2
:1009D000E5FE0020FFF7E2FE0020FFF7DFFE00202B
:1009E000FFF7DCFE0020FFF7D9FE0020FFF7D6FE60
:1009F00001204A49C1F8B8011020FFF74DFC10BD95
:100A000010B500204449091D08600120FFF7C6FE0B
:100A10004420FFF7C3FE0020FFF7C0FE0120FFF7D0
:100A2000BDFEEE20FFF7BAFE0020FFF7B7FE002064
:100A3000FFF7B4FE0020FFF7B1FE0020FFF7AEFE87
:100A400001203649C1F8B8011020FFF725FC10BD80
:100A500010B500203049091D08601020FFF71CFC6C
:100A60000120FFF79BFE4D20FFF798FE0020FFF7C7
:100A700095FE0020FFF792FE0120FFF78FFE012078
:100A80002649C1F8B8011020FFF706FC10BD10B5CB
:100A900000202149091D08601020FFF7FDFB0120FF
:100AA000FFF77CFE4320FFF779FE0020FFF776FE7C
:100AB0000020FFF773FE5A20FFF770FE5A20FFF761
:100AC0006DFE5A20FFF76AFE5A20FFF767FE5A2094
:100AD000FFF764FE01201149C1F8B8011020FFF7AB
:100AE000DBFB10BD10B5FFF741FFFFF73FFFFFF73E
:100AF0003DFFFFF75AFFFFF783FFFFF7A9FFFFF75F
:100B0000C6FF10BD00100240040C0140000001406F
:100B100000003033F8000020B481214200802142DF
:100B20000C0000202E0000200E0000200D488069DF
:100B300040F020000B4988610B48006820F4706089
:100B40000A49C1F800040846D0F8000440F4407097
:100B5000C1F800040846D0F80C0440F00400C1F8C5
:100B60000C047047001002400014014000100140C6
:100B7000F0B4144620F0004621F0004100F000429D
:100B80008E4205D230460E4601460CB182F000423C
:100B900019B946EA0200F0BC7047C6F3C753C1F367
:100BA000C7501D1AC6F3160040F40000202D14DAB9
:100BB000C1F3160141F40001002C21FA05F402D022
:100BC000A0EB040000E02044C5F1200401FA04F188
:100BD00008D0494206D0401E04E014B14FF0FF3166
:100BE000F9E70121F0BC00F0B8B890EA010201D5A4
:100BF000012200E00022BBE790EA010201D50022B9
:100C000000E00122B4E703460846594001D500221E
:100C100000E001221946ABE780EA010210B502F0BC
:100C20000042400001D04B0001D1002010BD4FEA2E
:100C3000106101EB1361C0F35600C3F3560340F497
:100C4000000043F40003A0FB03307F394FEA00406B
:100C50001C0400D0401C50EA134001D44000491E3F
:100C6000C3B20C0604EBD010401C4008802B01D10D
:100C700020F00100002900DA0020104310BDF0B47C
:100C800080EA010230F0004302F0004221F000400F
:100C900000D010B9F0BC00207047C0F3C755C3F3B3
:100CA0001601C3F3C756731BC0F3160040F40004CB
:100CB0007E3341F400014FF080750020A14201D342
:100CC000091B28436D084FEA4101F7D151B1A142F8
:100CD00002D14FF0004105E002D24FF0010101E0E6
:100CE0006FF00101F0BC00F038B8962300221146E5
:100CF00000F033B820F00040C10DC0F3160040F4FE
:100D000000007F2901DA00207047962903DCC1F139
:100D10009601C840704796398840704730B50B46F9
:100D2000014600202022012409E021FA02F59D421B
:100D300005D303FA02F5491B04FA02F52844151EEF
:100D4000A2F10102F1DC30BD002905DA401CB1F14D
:100D5000004F01D120F00100704730B450EA010487
:100D60000BD130BC0020704701F0010545EA51016C
:100D700041EAC07140085B1C01E04FF08074A04262
:100D8000F2D24FF4000404E0400040EAD170490080
:100D90005B1EA042F8D300EBC350A0F5000030BCAE
:100DA0001044D1E7064C074D06E0E06840F001032F
:100DB00094E8070098471034AC42F6D3FFF79AF94D
:100DC00054110008741100080FB410B503A9044BA6
:100DD000044A029800F018F810BC5DF814FB0000FB
:100DE000BB0500080800002002E008C8121F08C167
:100DF000002AFAD170477047002001E001C1121F9C
:100E0000002AFBD1704700002DE9FF4F8DB0054649
:100E10008846002667E125287ED100246D1CB8494C
:100E2000A146A24601222B78203B02FA03F0084299
:100E300002D004436D1CF6E728782A2816D158F80A
:100E4000049BB9F1000F03DA44F40054C9F100091E
:100E500044F002046D1C10E009EB890002EB400035
:100E600044F0020401EB00096D1C01E06FF02F0259
:100E70002978A1F130000928EED928782E2818D138
:100E800015F8010F44F004042A280BD158F804ABDC
:100E90006D1C0EE00AEB8A0002EB400001EB000A39
:100EA0006D1C01E06FF02F022978A1F130000928B4
:100EB000F0D928786C280ED008DC4C2816D0682889
:100EC0000CD06A2813D144F400140FE074280DD01C
:100ED0007A280CD10AE044F4801401E044F4401470
:100EE0006978814202D16D1C04F580146D1C28784C
:100EF000692806D017DC002876D0632843D0642800
:100F00008AD10A2758F8040BC4F30251032900D1EF
:100F100000B2042902D100E0EDE040B2002871DA0D
:100F200040422D2171E06E2810D0732836D07528EC
:100F3000E6D10A2758F8040BC4F30251032900D163
:100F400080B2042900D1C0B2002161E0C4F3025094
:100F5000022806D1D8F80010F217C1E90062404615
:100F60000EE0032804D1D8F8001040460E8007E0B8
:100F70000428D8F80010404601D10E7000E00E6041
:100F800000F10408AEE058F8041B8DF82C10002086
:100F90008DF82D000DF12C0B012003E058F804BB57
:100FA0004FF0FF3061074FF000070AD500E07F1CCB
:100FB00057450EDA8742FADB1BF807100029F6D1F5
:100FC00007E000E07F1C8742FCDB1BF807100029CC
:100FD000F8D1DDE90F23A9EB07092146484600F0C7
:100FE000A3F83044C61905E081E0DDE90F121BF8D3
:100FF000010B90477F1EF8D2DDE90F2321464846BA
:101000006DE0FFE7210505D52B218DF80C1001219E
:10101000019103E0E10797D02021F6E70DF1300BB5
:1010200007E03946FFF77AFEABF101023031934613
:1010300011700028F5D104A9A1EB0B00203002901B
:10104000600702D524F4803401E04FF0010A029ACF
:101050000020924501DDAAEB02008246019910446E
:101060000144A9EB01000C90E00306D4DDE90F2355
:1010700021460C9800F058F8064400270DF10C09A1
:1010800006E0DDE90F1219F807009047761C7F1C77
:1010900001988742F5DBE0030CD5DDE90F232146FB
:1010A0000C9800F041F8064404E0DDE90F1230200E
:1010B0009047761CBAF10000AAF1010AF5DC05E0C0
:1010C000DDE90F121BF8010B9047761C0298411EB8
:1010D00002910028F4DCDDE90F2321460C9800F092
:1010E00011F806446D1C287800287FF494AE304631
:1010F00011B0BDE8F08FDDE90F129047761CF1E7E3
:10110000092801002DE9F0410446002517461E4636
:10111000880406D503E039462020B0476D1C641EC4
:10112000F9D52846BDE8F0812DE9F04104460025B7
:10113000302790461E46C80300D42027880406D4D2
:1011400003E041463846B0476D1C641EF9D5284679
:10115000BDE8F0817411000800000020300000009C
:10116000E80D0008A411000830000020D80200009B
:10117000F80D000800000000000000000000000062
:101180000142010002000300040005000600070000
:10119000080009000A000B000C000D000E000F00F3
:0411A000100000003B
:04000005080000ED02
:00000001FF
